{
  "_format": "hh-sol-artifact-1",
  "contractName": "GlacierPayments",
  "sourceName": "contracts/GlacierPayments.sol",
  "abi": [
    {
      "inputs": [],
      "stateMutability": "nonpayable",
      "type": "constructor"
    },
    {
      "anonymous": false,
      "inputs": [
        {
          "indexed": true,
          "internalType": "address",
          "name": "provider",
          "type": "address"
        },
        {
          "indexed": false,
          "internalType": "uint256",
          "name": "amount",
          "type": "uint256"
        }
      ],
      "name": "EarningsWithdrawn",
      "type": "event"
    },
    {
      "anonymous": false,
      "inputs": [
        {
          "indexed": true,
          "internalType": "address",
          "name": "uploader",
          "type": "address"
        },
        {
          "indexed": false,
          "internalType": "uint256",
          "name": "fileSize",
          "type": "uint256"
        },
        {
          "indexed": false,
          "internalType": "uint256",
          "name": "totalCost",
          "type": "uint256"
        },
        {
          "indexed": false,
          "internalType": "uint256",
          "name": "providerCount",
          "type": "uint256"
        },
        {
          "indexed": false,
          "internalType": "uint256",
          "name": "timestamp",
          "type": "uint256"
        }
      ],
      "name": "FileUploaded",
      "type": "event"
    },
    {
      "anonymous": false,
      "inputs": [
        {
          "indexed": true,
          "internalType": "address",
          "name": "provider",
          "type": "address"
        },
        {
          "indexed": false,
          "internalType": "uint256",
          "name": "amount",
          "type": "uint256"
        },
        {
          "indexed": true,
          "internalType": "address",
          "name": "uploader",
          "type": "address"
        }
      ],
      "name": "PaymentDistributed",
      "type": "event"
    },
    {
      "inputs": [
        {
          "internalType": "uint256",
          "name": "fileSizeBytes",
          "type": "uint256"
        }
      ],
      "name": "calculateUploadCost",
      "outputs": [
        {
          "internalType": "uint256",
          "name": "",
          "type": "uint256"
        }
      ],
      "stateMutability": "pure",
      "type": "function"
    },
    {
      "inputs": [
        {
          "internalType": "address",
          "name": "provider",
          "type": "address"
        }
      ],
      "name": "getProviderEarnings",
      "outputs": [
        {
          "internalType": "uint256",
          "name": "",
          "type": "uint256"
        }
      ],
      "stateMutability": "view",
      "type": "function"
    },
    {
      "inputs": [],
      "name": "getStats",
      "outputs": [
        {
          "internalType": "uint256",
          "name": "filesUploaded",
          "type": "uint256"
        },
        {
          "internalType": "uint256",
          "name": "totalDistributedAmount",
          "type": "uint256"
        },
        {
          "internalType": "uint256",
          "name": "contractBalance",
          "type": "uint256"
        }
      ],
      "stateMutability": "view",
      "type": "function"
    },
    {
      "inputs": [],
      "name": "owner",
      "outputs": [
        {
          "internalType": "address",
          "name": "",
          "type": "address"
        }
      ],
      "stateMutability": "view",
      "type": "function"
    },
    {
      "inputs": [
        {
          "internalType": "address",
          "name": "",
          "type": "address"
        }
      ],
      "name": "providerEarnings",
      "outputs": [
        {
          "internalType": "uint256",
          "name": "",
          "type": "uint256"
        }
      ],
      "stateMutability": "view",
      "type": "function"
    },
    {
      "inputs": [],
      "name": "totalDistributed",
      "outputs": [
        {
          "internalType": "uint256",
          "name": "",
          "type": "uint256"
        }
      ],
      "stateMutability": "view",
      "type": "function"
    },
    {
      "inputs": [],
      "name": "totalFilesUploaded",
      "outputs": [
        {
          "internalType": "uint256",
          "name": "",
          "type": "uint256"
        }
      ],
      "stateMutability": "view",
      "type": "function"
    },
    {
      "inputs": [
        {
          "internalType": "address[]",
          "name": "providers",
          "type": "address[]"
        },
        {
          "internalType": "uint256",
          "name": "fileSizeBytes",
          "type": "uint256"
        }
      ],
      "name": "uploadFile",
      "outputs": [],
      "stateMutability": "payable",
      "type": "function"
    },
    {
      "inputs": [],
      "name": "withdrawEarnings",
      "outputs": [],
      "stateMutability": "nonpayable",
      "type": "function"
    }
  ],
  "bytecode": "0x608060405234801561001057600080fd5b50600180546001600160a01b0319163317905561083e806100326000396000f3fe6080604052600436106100865760003560e01c80638da5cb5b116100595780638da5cb5b14610136578063b73c6ce91461016e578063c59d484714610183578063d1e7a4b5146101b2578063efca2eed146101c857600080fd5b8063159a65941461008b5780631625290f146100cb5780632e9e474f146101015780634aec627a14610116575b600080fd5b34801561009757600080fd5b506100b86100a63660046106a0565b60006020819052908152604090205481565b6040519081526020015b60405180910390f35b3480156100d757600080fd5b506100b86100e63660046106a0565b6001600160a01b031660009081526020819052604090205490565b61011461010f3660046106d0565b6101de565b005b34801561012257600080fd5b506100b861013136600461074b565b61054c565b34801561014257600080fd5b50600154610156906001600160a01b031681565b6040516001600160a01b0390911681526020016100c2565b34801561017a57600080fd5b50610114610571565b34801561018f57600080fd5b5060025460035447604080519384526020840192909252908201526060016100c2565b3480156101be57600080fd5b506100b860025481565b3480156101d457600080fd5b506100b860035481565b816102295760405162461bcd60e51b8152602060048201526016602482015275139bc81c1c9bdd9a59195c9cc81cdc1958da599a595960521b60448201526064015b60405180910390fd5b6000811161026d5760405162461bcd60e51b8152602060048201526011602482015270496e76616c69642066696c652073697a6560781b6044820152606401610220565b6000621000006102828364174876e80061077a565b61028c9190610791565b9050803410156102d55760405162461bcd60e51b8152602060048201526014602482015273125b9cdd59999a58da595b9d081c185e5b595b9d60621b6044820152606401610220565b60006102e18434610791565b9050600081116103275760405162461bcd60e51b815260206004820152601160248201527014185e5b595b9d081d1bdbc81cdb585b1b607a1b6044820152606401610220565b60005b84811015610481576000868683818110610346576103466107b3565b905060200201602081019061035b91906106a0565b90506001600160a01b0381166103b35760405162461bcd60e51b815260206004820152601860248201527f496e76616c69642070726f7669646572206164647265737300000000000000006044820152606401610220565b336001600160a01b038216036104015760405162461bcd60e51b815260206004820152601360248201527221b0b73737ba1039b2b732103a379039b2b63360691b6044820152606401610220565b6001600160a01b038116600090815260208190526040812080548592906104299084906107c9565b909155505060405183815233906001600160a01b038316907f54671ed5b46041912e71433c137078ccb494dc08e8e10fe9ec7d2d691cc42a3e9060200160405180910390a35080610479816107dc565b91505061032a565b5060028054906000610492836107dc565b919050555034600360008282546104a991906107c9565b90915550506040805184815234602082015290810185905242606082015233907fc77fc784cd3ef067b111e09f79c4cb335d9ed52b66d5774de907c1e1bd16ec7b9060800160405180910390a26000610502858361077a565b90508034111561054457336108fc61051a83346107f5565b6040518115909202916000818181858888f19350505050158015610542573d6000803e3d6000fd5b505b505050505050565b6000621000006105618364174876e80061077a565b61056b9190610791565b92915050565b33600090815260208190526040902054806105ce5760405162461bcd60e51b815260206004820152601760248201527f4e6f206561726e696e677320746f2077697468647261770000000000000000006044820152606401610220565b336000818152602081905260408082208290555190919083908381818185875af1925050503d806000811461061f576040519150601f19603f3d011682016040523d82523d6000602084013e610624565b606091505b50509050806106675760405162461bcd60e51b815260206004820152600f60248201526e151c985b9cd9995c8819985a5b1959608a1b6044820152606401610220565b60405182815233907f48dc35af7b45e2a81fffad55f6e2fafacdb1d3d0d50d24ebdc16324f5ba757f19060200160405180910390a25050565b6000602082840312156106b257600080fd5b81356001600160a01b03811681146106c957600080fd5b9392505050565b6000806000604084860312156106e557600080fd5b833567ffffffffffffffff808211156106fd57600080fd5b818601915086601f83011261071157600080fd5b81358181111561072057600080fd5b8760208260051b850101111561073557600080fd5b6020928301989097509590910135949350505050565b60006020828403121561075d57600080fd5b5035919050565b634e487b7160e01b600052601160045260246000fd5b808202811582820484141761056b5761056b610764565b6000826107ae57634e487b7160e01b600052601260045260246000fd5b500490565b634e487b7160e01b600052603260045260246000fd5b8082018082111561056b5761056b610764565b6000600182016107ee576107ee610764565b5060010190565b8181038181111561056b5761056b61076456fea26469706673582212206be940d6f1b0617d567dabcde8bd856512c1606e6d8ec001fd524de22dd5add364736f6c63430008140033",
  "linkReferences": {},
  "deployedLinkReferences": {}
}